:020000040800F2
:10000000405D0024E1020008D9EA0008E9DF0008A9
:10001000D1EA000841180008C1680108000000008A
:10002000000000000000000000000000B101010815
:100030006129000800000000C1F30008190401084C
:10004000FB020008FB020008FB020008FB0200089C
:10005000FB020008FB020008FB020008FB0200088C
:10006000FB020008FB020008FB020008D92300087D
:10007000E9230008FB020008FB020008FB0200085D
:10008000FB020008FB020008FB020008412F0008E9
:10009000FB020008512F0008FB020008FB020008C9
:1000A000FB020008FB020008FB020008FB0200083C
:1000B000FB020008FB020008FB020008FB0200082C
:1000C000FB020008FB020008FB020008FB0200081C
:1000D000C1FF0008C12D0108D12D0108FB02000855
:1000E000FB020008FB02000800000000FB02000801
:1000F000FB020008FB020008FB020008FB020008EC
:10010000FB020008FB020008FB020008FB020008DB
:10011000FB020008FB020008FB020008FB020008CB
:10012000FB020008FB020008FB020008FB020008BB
:10013000FB020008FB020008FB020008FB020008AB
:1001400000000000000000000000000000000000AF
:10015000FB020008FB020008FB020008FB0200088B
:10016000FB020008FB020008FB020008FB0200087B
:10017000FB02000851EB0008FB0200080000000031
:10018000FB020008FB020008FB020008FB0200085B
:10019000FB020008FB020008FB020008FB0200084B
:1001A000FB020008FB020008FB0200080000000040
:1001B000FB020008FB020008FB020008FB0200082B
:1001C000FB020008FB020008000000000000000025
:1001D0000000000000000000FB020008000000001A
:1001E000000000000000000000000000000000000F
:1001F0000000000000000000FB020008FB020008F5
:10020000FB020008FB02000800000000FB020008DF
:10021000FB020008FB020008F9060108FB020008C7
:10022000FB02000800000000FB02000800000000C4
:10023000FB020008FB02000800000000FB020008AF
:10024000FB020008FB020008FB020008FB0200089A
:10025000FB020008FB020008FB020008FB0200088A
:10026000FB020008FB020008FB020008FB0200087A
:10027000FB020008FB020008FB020008000000006F
:10028000FB020008FB020008FB020008FB0200085A
:1002900000000000FB020008FB0200080000000054
:1002A00000000000FB020008FB020008FB0200083F
:1002B000FB020008FB020008FB020008FB0200082A
:1002C000FB020008FB020008FB020008DFF80CD06C
:1002D00000F0BEFB00480047517B0108405D002450
:1002E0000648804706480047FEE7FEE7FEE7FEE7D0
:1002F000FEE7FEE7FEE7FEE7FEE7FEE73105010861
:10030000CD0200082DE9F05F0546002092469B468D
:1003100088460646814640241BE02846414647461B
:10032000224600F0F6F853465A46C01A914110D3BF
:1003300011461846224600F0DDF82D1A67EB010839
:100340004F4622460120002100F0D4F817EB0009A7
:100350004E41201EA4F10104DFDC484631462A4606
:100360004346BDE8F09F40EA01039B0703D009E044
:1003700008C9121F08C0042AFAD203E011F8013B91
:1003800000F8013B521EF9D27047D2B201E000F8EA
:10039000012B491EFBD270470022F6E710B5134629
:1003A0000A4604461946FFF7F0FF204610BD421CDE
:1003B00010F8011B0029FBD1801A704710B50022EC
:1003C00000E0521C835C8C5CA34201D1002BF8D16D
:1003D000D8B2E1B2401A10BD034611F8012B00F863
:1003E000012B002AF9D118467047000070B50F4D57
:1003F00000B92868002412E00A4602E09E4203D0B9
:10040000521C1378002BF9D1DAB2224305D02BB15C
:1004100024B1002100F8011B04E00446401C0678CA
:10042000002EE9D12860204670BD000000000024A5
:100430002DE9F04791460F4680460446002614F801
:10044000015B2DB100F076F80068405DC007F6D181
:100450002B2D02D02D2D18D0641E4A463946204639
:1004600000F075F827B13968A14201D1C7F80080C2
:1004700071054FF002040BD54042002803DD19F04E
:10048000CDFB0460A007BDE8F08746F48066E4E792
:100490000028F8DA19F0C2FB04606FF00040F2E7C0
:1004A0003EB5CA17CB0F002450405140C0186141DF
:1004B000DA0740F233430094CDE901232246234674
:1004C00000F0A7F803B030BD30B50B460146002060
:1004D0002022012409E021FA02F59D4205D303FA06
:1004E00002F5491B04FA02F52844151EA2F1010287
:1004F000F1DC30BD202A04DB203A00FA02F10020B2
:1005000070479140C2F1200320FA03F31943904051
:100510007047202A04DB203A21FA02F000217047BC
:1005200021FA02F3D040C2F120029140084319465B
:1005300070470000004870475CC4010810B50446CD
:10054000FFF7F8FF0068005D00F0010010BD2DE925
:10055000F05F82460078002715468B460AF10104B9
:10056000B946302801D09DB113E014F8010B0127E2
:10057000782803D0582801D045B10AE00DB1102DDC
:1005800007D10027102514F8010B02E0082500E030
:100590000A250026B0460EE005FB080005FB06F123
:1005A000012701EB10461FFA80F8B6F5803F00D313
:1005B000B94614F8010B294600F074FA0028EBDA6A
:1005C000BBF1000F05D00FB1641E00E05446CBF81C
:1005D0000040B9F1000F06D019F020FB02210160A4
:1005E000C81EBDE8F09F48EA0640FAE70023036012
:1005F00000F085BA10B5141E73F1000408DA401C2F
:1006000041F1000192185B411A4301D120F0010031
:1006100010BD2DE9F04D92469B4611B1B1FA81F221
:1006200002E0B0FA80F220329046FFF763FF044602
:100630000F4640EA0A0041EA0B0153465A46084376
:1006400013D0114653EA010019D0C8F140025046B8
:10065000FFF75FFF05460E46504659464246FFF7F4
:1006600049FF084305D0012004E020463946BDE893
:10067000F08D0020054346EAE0762C4337430A9884
:100680006305E40AA0EB08000022FD0A44EA47548F
:100690000A3002D500200146E9E701051019694139
:1006A000DDE9084500196941BDE8F04DA2E72DE9F3
:1006B000FE4F804681EA0300C00F0C46009021F0F7
:1006C000004123F00045B8EB0200A94105D24046A5
:1006D000214690461C460B46024623F0004010433C
:1006E00047D0270DC7F30A00C3F30A510290401AFE
:1006F000019040286BDAC3F3130040F4801B00988C
:10070000924620B10023D2EB030A63EB0B0B019856
:100710005946C0F140025046FFF7ECFE06460D4632
:1007200050465946019A00F0ABF910EB08006141C0
:10073000002487EA115284EAE7731A4340D0009AF2
:1007400062B3019A012A4FEA075215DC001B61EBE4
:1007500002014FF0004202EA0752CDE90042001CBC
:1007600041F5801132462B46FFF753FF03B0BDE839
:10077000F08F40462146F9E7001B61EB0201001CA7
:1007800041F5801300185B412018A2F5001747EBD4
:10079000030140EAD570B6196D4111E06D084FEACA
:1007A000360645EAC0754FEA0752001B61EB0201AD
:1007B000001C41F5801149084FEA300000195141F1
:1007C00032462B4603B0BDE8F04FFFF713BF009849
:1007D000012240000023D0EB020263EBE07300989B
:1007E00021464FEAE074B8EB000061EB0401E9E751
:1007F00083F000435BE781F0004158E72DE9FE4FAD
:1008000081EA030404F0004421F0004100944FF019
:10081000000B23F0004350EA01045ED052EA0304C7
:100820005BD0C3F30A54C1F30A552C44A4F2F33449
:100830000194A0FB0254C1F3130141F48011C3F3EE
:10084000130343F4801301FB024400FB034E840AAC
:10085000970A44EA815447EA8357A4FB0768029544
:100860008D0A05FB07854FEA932C04FB0C542705E2
:10087000029D4FEA065847EA1637B5EB08056EEBBE
:10088000070C870E920E47EA811742EA8312A7FBF4
:100890000201B6EB0B0164EB00042B0D43EA0C33B1
:1008A0005E1844EB1C50DA465146E7FB0201C5F3E3
:1008B00013044FEA0B3343EA14534FEA0432019C0A
:1008C00043EA0603A4F10C040294009CCDE900B4B1
:1008D000FFF79FFE03B0BDE8F08F00200146F9E767
:1008E0002DE9F04D81EA030404F0004B21F00045AE
:1008F00014464FF0000A23F0004150EA050220D0D0
:1009000054EA01021DD0C5F30A570246C5F313038A
:10091000C1F31300C1F30A5640F4801543F4801369
:10092000A7EB0608101BD64608F2FD3873EB05004E
:1009300002D308F1010801E092185B41B8F1000F01
:1009400003DA00200146BDE8F08D00204FF480114D
:10095000064684460EE0171B73EB050705D3121BF2
:1009600063EB050306434CEA010C49084FEA3000EB
:1009700092185B4150EA0107EDD152EA030012D010
:1009800082EA040083EA0501084305D0101BAB414D
:1009900006D20122002306E000224FF0004302E0CD
:1009A0006FF0010253101AEB06004CEB085110EBEC
:1009B0000A0041EB0B01BDE8F04DFFF71BBE70B51F
:1009C00021F0004303430CD0C1F30A550024D5EBBA
:1009D000040564EB0403D617AD1AB34102DB002013
:1009E000014670BD201841EB025170BDC1F30A529F
:1009F000C1F3130140F2FF3341F480119A4202DA4D
:100A000000200146704740F233439A42A2F233423B
:100A100002DC5242FFF77DBDFFF76CBD30B5041E0E
:100A200071F1000404DB4FF00044404264EB01012B
:100A3000141E73F1000405DB1C464FF000435242C4
:100A400063EB0403994208BF904230BD0020704719
:100A50001CB509480090094801900546009C06E035
:100A6000E06840F0010394E8070098471034AC4276
:100A7000F6D3FFF72FFC000050CC010880CC010812
:100A8000202A06DBCB17203A41FA02F043EAE07352
:100A900006E041FA02F3D040C2F12002914008433F
:100AA000194670473A2800D2303820F02002412AF7
:100AB00001D3A2F13700884201D34FF0FF307047D5
:100AC0000FB40B0010B58AB00FA900910E994FF02A
:100AD0000004234ACC60214CCDE9064200D0042317
:100AE0006FF00042CDE901321E4A089202466B4681
:100AF000002000F0CDF80AB010BC5DF814FBF0B592
:100B000085B007464FF0FF300091CDE901011E4648
:100B1000002015460C4604903B466A46314604A820
:100B2000FFF7CEFF04990346601825B109B10246CC
:100B300000E022462A6000290ED0002B02DD009939
:100B4000814209D00094001BCDE901043B466A466E
:100B5000314604A8FFF7B4FF05B0F0BDC90E000888
:100B6000E70E00083D0500082DE9FF4F087883B027
:100B70009946FF2805D0491C2D2804D000240020C8
:100B800008E000200BE00124F9E700EB800003EB14
:100B90004000491C0B78FF2BF7D104B140420023E1
:100BA0000293147819461D462D2C01D02B2C04D10C
:100BB000521C2D2C13D000240294AA461478FF2C2A
:100BC0000FD00A25A3FB057801FB05814FF0000C2F
:100BD00003FB0C11521CE3194AEB0101EEE701245F
:100BE000EAE7814453EA010002D019F5C87F06DA2A
:100BF00003980021C0E9001107B0BDE8F08F00257F
:100C0000AE4E2F46DFF8B882184600F07DF9CDE9E8
:100C10000001B9F1000002DAC9F1000400E0044665
:100C20000023A74A1AEB030B42EB045A12E0E00739
:100C300007D02A46334638464146FFF7DFFD0746D0
:100C400088462A46334610461946FFF7D7FD054623
:100C50000E466410002CEAD1DDE90001B9F1000F65
:100C60005A46534606DAFFF73BFE3A464346FFF73D
:100C700037FE05E0FFF7C2FD3A464346FFF7BEFDEB
:100C8000029A0AB181F00041039AC2E90001B3E778
:100C90002DE9FF4F1F468DB0D7E901464FF0FF38D1
:100CA0002E2045464FF000090B90B9696D1C0E9837
:100CB0008847396A824688470028F6D1BAF1FF3F53
:100CC0000AD024F4D064002E11DDBAF12B0F08D025
:100CD000BAF12D0F0BD102E0404611B08DE744F47C
:100CE0008064B9696D1C0E9888478246761E6946F5
:100CF000600501D52D2000E02B208DF8000001F1CA
:100D0000010B0DF1200809E0B9696D1C0E988847A8
:100D100082460F9844F40074761E0560002E02DDB2
:100D2000BAF1300FF0D00B998A453ED144F08004DF
:100D300006E00F99681CA9F1010944F400740860E9
:100D4000B9696D1C761E0E98884782463028F0D00F
:100D50002BE00B998A4505D1200603D444F080048A
:100D6000761E18E050461AF079FD08B30DF1130213
:100D7000761EAAF1300044F40074934506D20BF8B5
:100D8000010B200607D5A9F1010003E0200602D4DB
:100D900009F101008146A00502D50F99681C086081
:100DA000B9696D1C0E9888478246002ED1DC53E04D
:100DB000002E51DDBAF1650F02D0BAF1450F4BD1CB
:100DC000A00549D5B9696D1C24F44074761E0E98AF
:100DD00088478246002E0CDD2B2804D0BAF12D0F57
:100DE00007D144F48074B9696D1C0E988847824617
:100DF000761EE00501D52D2100E02B2108F8011B0E
:100E0000CDF82C8021E00DF12901761E44F4007408
:100E100088450CD2AAF1300010F0FF0088F80000DD
:100E200002D10B99884509D908F1010806E0E005CF
:100E300001D5244801E042F20F708146B9696D1C6A
:100E40000E98884782460F980560002E04DD5046B4
:100E50001AF004FD0028D6D1F9690E988847FF20C2
:100E60008BF8000088F800000020069007904B46A1
:100E70006A4608A906A8FFF777FEA00502D46FF01E
:100E800001002AE714F0240F0AD0E00714D1DDE9AD
:100E900006123868031D3B600068C0E900120BE0D1
:100EA000DDE9060100F03CF80146E00704D13868AE
:100EB000021D3A600068016028460EE700001440F9
:100EC0000000F03FF1D8FFFF426842B1016811F81D
:100ED000013B23B1521EC0E90012184670470121A0
:100EE000C160881E704742685AB1C368016843B93F
:100EF00083688B4205D0491E521CC0E900120020B5
:100F000070474FF0FF3070470EB540F23342029207
:100F10000022CDE900221346FFF77BFB03B000BDA2
:100F200001F0004330B421F0004150EA010206D044
:100F30000A0DA2F56072C1F31301002A02DC30BC75
:100F400000207047440F44EAC104C100E01830BCDF
:100F500000EBC250AFF300800029A8BF7047401CCF
:100F6000490008BF20F00100704710B4B0FA80FCBF
:100F700000FA0CF050EA010404BF10BC704749B1FC
:100F8000CCF1200421FA04F411FA0CF118BF01216C
:100F900021430843A3EB0C01CB1D4FEA00614FEA4C
:100FA000102042BF002010BC704700EBC35010441B
:100FB0000029A4BF10BC7047401C490008BF20F0A6
:100FC000010010BC704770B58D1810F8014B14F07B
:100FD000030201D110F8012B231106D110F8013BB7
:100FE00003E010F8016B01F8016B521EF9D1ABB1AF
:100FF00010F8012B04F00C048A1A0C2C03D0A2EB7D
:1010000084129B1C08E010F8014BA2EB0422F8E7C5
:1010100012F8014B01F8014B5B1EF9D5A942D4D35C
:10102000002070BD0000000080B58CB00B900A91CC
:101030000B98022856D1FFE70A9840684CF6054104
:10104000C0F60101FFF7BAF938B9FFE743F62C11F2
:10105000C2F200410120087043E00A9840684CF653
:101060000341C0F60101FFF7A9F938B9FFE743F6DC
:101070002C11C2F200410220087031E00A98406849
:101080004CF6ED31C0F60101FFF798F938B9FFE7EA
:1010900043F62C11C2F20041032008701FE00A98A9
:1010A00040684CF6F231C0F60101FFF787F970B9DC
:1010B000FFE742F25040C2F200404168C369426B10
:1010C0004CF6C920C0F6010016F012FE06E04CF600
:1010D0003520C0F6010016F00BFEFFE7FFE7FFE743
:1010E000FFE72FE10B98032840F0B780FFE70A984D
:1010F000806809A90A22FFF79BF9089009980A99C4
:101100008968884204D0FFE70998007838B1FFE782
:101110004CF61D20C0F6010016F0EAFDFFE70A9824
:1011200040684CF6E631C0F60101FFF747F968B9AF
:10113000FFE7089842F25041C2F2004148604CF685
:10114000A330C0F6010016F0D3FD85E00A98406890
:101150004CF6D831C0F60101FFF730F968B9FFE766
:10116000089842F25041C2F2004148634CF66330A5
:10117000C0F6010016F0BCFD6DE00A9840684CF620
:10118000DF31C0F60101FFF719F968B9FFE70898E8
:1011900042F25041C2F20041C8614CF68330C0F6C1
:1011A000010016F0A5FD55E00A9840684CF6144180
:1011B000C0F60101FFF702F9002843D1FFE70A98C2
:1011C00080684CF60A41C0F60101FFF7F7F898B9BC
:1011D000FFE744F2E451C2F200410020087043F6F8
:1011E0002C11C2F20041052008704CF64430C0F6C4
:1011F000010016F07DFD24E00A9880684CF6F83175
:10120000C0F60101FFF7DAF898B9FFE744F2E451BC
:10121000C2F200410120087043F62C11C2F20041D5
:10122000052008704CF61230C0F6010016F060FD83
:1012300006E04CF65330C0F6010016F059FDFFE70A
:10124000FFE706E04CF63520C0F6010016F050FD31
:10125000FFE7FFE7FFE7FFE773E00B98052868D19A
:10126000FFE70A9840684CF6FE31C0F60101FFF72F
:10127000A5F800285CD1FFE70A98806807A90A2230
:101280000192FFF7D5F8019A04900A98C06806A960
:10129000FFF7CEF8019A03900A98006905A9FFF7B5
:1012A000C7F8029007980A998968884218D0FFE722
:1012B00007980078A0B9FFE706980A99C96888429C
:1012C0000ED0FFE70698007850B9FFE705980A9915
:1012D0000969884204D0FFE70598007838B1FFE734
:1012E0004CF6C010C0F6010016F002FD1FE0049A93
:1012F000D01742F25041C2F200418A60C860039A9E
:10130000D0178A63C863029AD0170A62486243F60C
:101310002C11C2F20041042008700499039A029B28
:101320004CF6EE20C0F6010016F0E2FCFFE7FFE706
:1013300006E04CF64820C0F6010016F0D9FCFFE7A5
:10134000FFE7FFE70CB080BD10B58AB009900A2016
:10135000089018F051FA0790FFE7FFE743F62C10CA
:10136000C2F20040007820B9FFE7012017F04CFFDF
:10137000F4E743F62C10C2F2004000780138014631
:101380000691052871D80699DFE801F0032230376D
:10139000445C42F25040C2F200400590012100F04E
:1013A0009FF80599086CD1F844C00A694B69D1F8D7
:1013B00028E0CC6A6946CC60C1F808E0C1F804C0F6
:1013C00008604CF69F20C0F6010016F091FC4CE03E
:1013D00042F25040C2F20040002100F081F84CF689
:1013E0007620C0F6010016F083FC3EE042F2504049
:1013F000C2F2004015F074FF37E042F25040C2F2F2
:10140000004015F09DFF4CF68C20C0F6010016F050
:101410006FFC2AE044F2E450C2F20040017842F24C
:101420005040C2F20040483016F042FC44F2E55110
:10143000C2F2004108704CF6CE30C0F6010016F042
:1014400057FC12E042F25040C2F20040483001F036
:101450007FFC44F2E551C2F2004108704CF6C33003
:10146000C0F6010016F044FCFFE743F62C11C2F26F
:1014700000410020087007A80A2117F0FDFE6CE764
:1014800080B582B00190FFE701980CF08DFF20B18C
:10149000FFE7012017F0B8FEF6E7FFE701983030CC
:1014A0000CF082FF20B1FFE7012017F0ADFEF5E759
:1014B000FFE7019818300CF077FF20B1FFE701201B
:1014C00017F0A2FEF5E7FFE70EF0CAFB20B1FFE739
:1014D000012017F099FEF7E702B080BD0000000080
:1014E00080B582B001908DF803109DF803000128AB
:1014F00016D1FFE7019815F0F3FE0199886ACA6AD0
:101500004A6208620199086C4A6CCA63886301994F
:1015100008694A69CA608860019815F011FF03E004
:101520000198FFF7ADFFFFE702B080BD00000000AB
:1015300080B540F60000C5F602000122114606F013
:101540002FF880BD0000000080B540F60000C5F611
:1015500002000121002206F023F880BD00000000F7
:10156000704700000000000080B540F60000C5F69E
:1015700002000821012206F013F880BD00000000DF
:1015800080B540F60000C5F602000821002206F0F2
:1015900007F880BD00000000704700000000000058
:1015A00080B582B0ADF80600BDF8060004F06CFC12
:1015B00002B080BD0000000080B582B0ADF806002A
:1015C000012004F061FC02B080BD000000000000BA
:1015D00080B582B000208DF80700FFF7C1FFFFF74C
:1015E000DBFF15F0E5FE01469DF8070008438DF886
:1015F000070015F0A5FF01469DF8070008438DF888
:1016000007009DF8070002B080BD00000000000048
:1016100080B584B04CF6CD40C3F6CC50039000208A
:10162000ADF80A00FFF7ACFF06200DF10A01022217
:1016300000F06EF8FFF798FF9DF80A009DF80B1078
:1016400040EA0120ADF8080043F63C10C2F2004029
:101650000188BDF80800401AADF808009DED031A96
:10166000BDF9080000EE100AB8EEC02AB7EE000A75
:1016700030EE410A41F24001C2F20041B1F90000EE
:1016800003EE100AB8EEC33A20EE030AA1EE020AF6
:10169000BDEEC00A10EE100AADF80800BDF8080053
:1016A0000880BDF9080000EE100AB8EEC00A9FEDF0
:1016B000071A20EE010A9FED061A80EE010A8DED51
:1016C000010A9DED010A04B080BD00BF00007A450B
:1016D00000FF7F470000000080B582B00020ADF819
:1016E0000600FFF74DFF06200DF10601022200F073
:1016F0000FF8FFF739FF9DF806009DF8071040EA44
:101700000120ADF80400BDF9040002B080BD000066
:1017100080B584B08DF80F0002918DF807209DF8F8
:101720000F0040F0800000F063F8FFE79DF807002D
:1017300070B1FFE7552000F05BF80299087002983D
:10174000013002909DF8070001388DF80700EDE7A1
:1017500004B080BD0000000080B582B08DF80700A5
:1017600000919DF8070040F0800000F041F85520FE
:1017700000F03EF80099087002B080BD0000000043
:1017800080B584B0002003900290FFF7DDFEA22018
:1017900000F02EF8222002A90222FFF7B9FFFFF77E
:1017A000C7FE9DF808009DF80910C00040EA5110DE
:1017B000ADF80600BDF90600B0F5806F07DBFFE766
:1017C000BDF80600A0F50060ADF80600FFE7BDF922
:1017D000060000EE100AB8EEC01AB4EE002AB3EE0E
:1017E000070AA1EE020A04B080BD0000000000005C
:1017F00080B582B08DF8070069464FF47A700860B2
:1018000044F2B820C2F200400DF107010DF10602CA
:1018100001230AF031FD9DF8060002B080BD0000F2
:1018200080B582B08DF807008DF806109DF807008E
:10183000FFF7DEFF9DF80600FFF7DAFF02B080BD7C
:10184000FFE7FEE70000000084B08DF80F00029172
:10185000ADF806209DF80F000146009123281DD801
:101860000099DFE801F012131415161B1B1B1B1B3C
:101870001B1B1B1B1B1B1B1B1B1B1B1B1B1B1B1BB8
:101880001B1B1B1B1B1B1718191A08E007E006E09F
:1018900005E004E003E002E001E000E0FFE70020F3
:1018A00004B07047000000000020704700000000F6
:1018B00080B582B043F64010C2F20040009043F27F
:1018C0002C11C2F200410022019211F031FE009869
:1018D00042F62C11C2F2004111F00AFE019802B04A
:1018E00080BD00000000000080B584B0039002912C
:1018F00003980299096814F003FE039943F6401017
:10190000C2F20040019011F0F3FD019811F094FD36
:10191000002004B080BD000083B0029001918DF8DA
:10192000032000208DF802009DF9020003B07047EB
:1019300080B586B00490ADF80E1000208DF80D0033
:1019400043F64010C2F20040D0F8BC020290029868
:10195000D0F8140220B1FFE701208DF8170013E042
:101960000499BDF80E2043F64010C2F200400190E9
:1019700011F0DEFD019811F0E7FE8DF80D009DF8E5
:101980000D008DF81700FFE79DF8170006B080BD29
:1019900082B001908DF8031000208DF802000198AC
:1019A00000788DF8010001208DF80200FFE79DF816
:1019B00002009DF80310884215DAFFE79DF8010048
:1019C00001999DF80220895C41404CF21850C0F604
:1019D0000100405C8DF80100FFE79DF80200013036
:1019E0008DF80200E3E79DF8010002B070470000A7
:1019F00083B002908DF8071000208DF8060000904B
:101A0000FFE700989DF8071088420DDAFFE702987B
:101A10000099415C9DF8060008448DF80600FFE738
:101A2000009801300090ECE79DF8060003B0704785
:101A300080B58CB00B900A910B98032836D1FFE744
:101A40000A9840684CF60F41C0F60101FEF7B6FC5B
:101A500020BBFFE70A98806809A919F049FB8DEDC2
:101A6000080A09980A998968884204D0FFE709980A
:101A7000007838B1FFE74CF60420C0F6010016F0FC
:101A800037F90AE0089943F63410C2F200400160C9
:101A900090ED000A00F020FCFFE706E04CF65F2026
:101AA000C0F6010016F024F9FFE766E00B98042861
:101AB0005BD1FFE70A9840684CF6FE31C0F60101A1
:101AC000FEF77CFC002848D1FFE70A98806805A94A
:101AD00019F00EFB8DED030A0A98C06804A919F0ED
:101AE00007FB8DED020A05980A99896888420ED095
:101AF000FFE70598007850B9FFE704980A99C9688C
:101B0000884204D0FFE70498007838B1FFE74CF62C
:101B1000E210C0F6010016F0EBF81DE00398079004
:101B2000029806909DED070ADDED060A00F0BCFA6A
:101B30009DED070AB7EEC00A9DED061AB7EEC11A71
:101B4000684680ED001B53EC102B4CF62230C0F69B
:101B5000010016F0CDF8FFE706E04CF65F20C0F676
:101B6000010016F0C5F8FFE706E04CF65F20C0F66E
:101B7000010016F0BDF8FFE7FFE70CB080BD0000E4
:101B800080B586B0059001200490039017F034FED4
:101B9000029015F079FD00F0E7FEB7EE000A00F0C4
:101BA000ABFBFFE744F60A00C2F2004090F90000E8
:101BB00020B9FFE70A2017F027FBF3E7FFE744F619
:101BC0003C50C2F2004090ED000AF7EE000ACDED65
:101BD000010A00F01DF99DED010A00F03DFF00F043
:101BE000A7FF02A8012117F047FBE8E7000000006B
:101BF00080B59CB08DF86F001A9119928DED180A7E
:101C000041F25000C2F20040416815918068149082
:101C10009DF86F00F8B9FFE742F2A840C2F2004019
:101C20004188199A891A00EE101AB8EEC00A9DED83
:101C3000181A20EE010A8DED160A00881A99401A2A
:101C400000EE100AB8EEC00A9DED181A20EE010A47
:101C50008DED170A49E09DF86F0001281FD1FFE7BD
:101C600042F2BC40C2F200404188199A891A00EE43
:101C7000101AB8EEC00A9DED181A20EE010A8DED7B
:101C8000160A00881A99401A00EE100AB8EEC00A27
:101C90009DED181A20EE010A8DED170A24E09DF83B
:101CA0006F0002281FD1FFE742F2BC40C2F20040A1
:101CB0004188199A891A00EE101AB8EEC00A9DEDF3
:101CC000181A20EE010A8DED160A00881A99401A9A
:101CD00000EE100AB8EEC00A9DED181A20EE010AB7
:101CE0008DED170AFFE7FFE7FFE79DED170AB7EE57
:101CF000C00A8DED020B44F63C50C2F20040079042
:101D000090ED000AB7EEC00A9FED3F1B8DED081B5A
:101D100020EE010B18F058F907989DED081B8DED8A
:101D2000000B9DED160AB7EEC00A8DED040B90ED89
:101D3000000AB7EEC00A20EE010B19F031F99DED53
:101D4000003B9DED022B07989DED081BB0EE404B2C
:101D50009DED040B20EE040BA2EE030B8DED120B98
:101D60009DED160AB1EE400AB7EEC00A8DED0C0BE0
:101D700090ED000AB7EEC00A20EE010B18F024F92E
:101D800007989DED081B8DED0A0B9DED170AB7EE28
:101D9000C00A8DED0E0B90ED000AB7EEC00A20EEE2
:101DA000010B19F0FDF89DED0A2B9DED0C1BB0EE1B
:101DB000403B9DED0E0B20EE030BA1EE020B8DEDD3
:101DC000100B9DED150AB7EEC00A9DED121B30EE0B
:101DD000010BB7EEC00B9DED141AB7EEC11A9DEDC5
:101DE000102B31EE021BF7EEC10B00F05DF91598D8
:101DF00041F25001C2F20041486014988860C82046
:101E000017F002FA1CB080BD11DD52A246DF913FEF
:101E100080B590B08DED0F0ACDED0E0A41F20C1099
:101E2000C2F20040016941F2C403C2F200431A69E0
:101E3000891A42F20442C2F20042D2F810C08C4425
:101E400041F26831C2F20041D1F810E0ACEB0E0C67
:101E50004FEAEC7E0CEB9E7C4FEAAC0CCDF834C024
:101E600000691B6918441269801A0969401AC11770
:101E700000EB917080100C909DED0D0AB8EEC00A39
:101E8000F0EE000ACDED040A18F058FDDDED040A6D
:101E90008DED050A9DED0C0AB8EEC00A18F04EFD56
:101EA000B0EE401A9DED050A30EE010A19F003F973
:101EB000BDEEC00A8DED0B0A41F25000C2F20040A7
:101EC000069090ED030AB8EEC00A9DED0B1AF8EEED
:101ED000C10A9DED0E1A20300DF0A6FA0698BDEE4F
:101EE000C00A8DED0A0A90ED000A9DED0F1A30EE42
:101EF000410ADDED0E0A44300CF0FAFF0698BDEE03
:101F0000C00A8DED090A90ED040AB7EEC00A18F078
:101F10005BF806989DED0A1AB8EEC11B20EE010B86
:101F2000BDEEC00B8DED080A90ED040AB7EEC00AB5
:101F300019F036F89DED0A1AB8EEC11B20EE010B20
:101F4000BDEEC00B8DED070A0A9802281DDCFFE7E5
:101F500041F25002C2F200420B99D06852690192DC
:101F6000401A02900028039002D502984042039044
:101F700001990398884208DAFFE741F25001C2F262
:101F8000004188690130886106E041F25001C2F2E7
:101F9000004100208861FFE741F25001C2F2004198
:101FA0008869C969884209DBFFE741F25001C2F242
:101FB00000410020886181F87000FFE709984042E5
:101FC00041F20C11C2F2004108830998404241F2EB
:101FD000C401C2F2004108830998404242F2044120
:101FE000C2F2004108830998404241F26831C2F2CE
:101FF0000041088341F25000C2F2004090F87000A6
:1020000048B3FFE708980799421841F20C11C2F251
:102010000041088B1044088308990798421A41F23E
:10202000C401C2F20041088B104408830898079944
:10203000421A42F20441C2F20041088B1044088364
:1020400008980799421841F26831C2F20041088BA2
:10205000801A0883FFE710B080BD00000000000078
:1020600041F25000C2F2004090F87000704700004A
:1020700080B582B08DED010ACDED000A9DED010A1B
:10208000DDED000A00F010F8FFE7FFF7E9FF20B1EF
:10209000FFE70A2017F0B8F8F7E7642017F0B4F864
:1020A00002B080BD0000000080B59CB08DED1B0A21
:1020B000CDED1A0A41F25000C2F200401290002108
:1020C00013918161012180F870109DED1B0A90ED44
:1020D000011A30EE410A8DED190A9DED1A0A90EDB4
:1020E000021A30EE410A8DED180A1A9981601B9987
:1020F00041609DED190AB7EEC00A8DED020B90ED1F
:10210000000AB7EEC00A9FED4E1B8DED061B20EEB8
:10211000010B17F059FF9DED061B12988DED000B7A
:102120009DED180AB7EEC00A8DED040B90ED000A84
:10213000B7EEC00A20EE010B18F032FF9DED003B18
:102140009DED022B9DED061B1298B0EE404B9DEDD0
:10215000040B20EE040BA2EE030B8DED160B9DED90
:10216000180AB7EEC00A8DED0A0B90ED000AB7EE23
:10217000C00A20EE010B17F027FF9DED061B1298F9
:102180008DED080B9DED190AB7EEC00A8DED0C0B15
:1021900090ED000AB7EEC00A20EE010B18F000FF28
:1021A0009DED082B9DED0A1BB0EE403B9DED0C0B09
:1021B00020EE030B91EE020B8DED140B9DED160B33
:1021C000B0EE001B8DED0E1B17F056FF9DED0E1BA4
:1021D0008DED100B9DED140B17F04EFFB0EE401B74
:1021E0009DED100B30EE010B18F032FF12989FEDB1
:1021F000161B20EE010B9FED161B20EE010B9FED31
:10220000161B80EE010B9FED161B80EE010BBDEE41
:10221000C00B80ED030A9DED140B9DED161B17F00E
:10222000EFFD1298B7EEC00B80ED040A00F070FDD0
:102230001299139808641CB080BD00BF00BF00BF96
:1022400011DD52A246DF913F000000000000424035
:10225000000000000000C0400000000000005340EB
:1022600000000000FA21094082B08DED010ACDED99
:10227000000A019841F25001C2F200414860009802
:10228000886002B07047000080B582B08DED010A11
:102290009DED010A00F020F8FFE79DED010A44F6EC
:1022A0003C50C2F2004090ED001A30EE410AB7EE09
:1022B000C00AB0EEC00BB6EE001BB4EE410BF1EE5F
:1022C00010FA04DDFFE70A2016F09EFFE5E7642020
:1022D00016F09AFF02B080BD81B08DED000A41F288
:1022E0005001C2F20041002081F87000009808609F
:1022F00001B070470000000080B584B08DED030A86
:1023000041F25000C2F2004002907421FEF744F8FE
:1023100002982030DFED220ACDED000A9FED211A50
:10232000DFED211A9FED212ADFED212A9FED213AD1
:10233000DFED213AB0EE410A0DF062F9DDED002A41
:102340000298443000210191B3EE060ADFED1B0A2A
:10235000DFED1B1A9FED1B2AB0EE421A0CF0C4FEF3
:102360000198029981F870009DED030A9FED161AFD
:1023700020EE010A9FED151A20EE010A9FED141AB6
:1023800080EE010A9FED131A80EE010ABDEEC00A2D
:1023900081ED050A88610320C86104B080BD00BFDB
:1023A000000048420000964400400345CDCCCC3E9E
:1023B00014AE473FA4707D3F6F12033C6F12833A07
:1023C0000000FA4300000000000010420000004638
:1023D00000009842D00F494080B543F61C40C2F23D
:1023E000004001F0C1FF80BD80B543F69440C2F2C9
:1023F000004001F0B9FF80BD83B0029002980168EF
:1024000001201022C4F202029142009000F0A38049
:10241000FFE70298016801202822C4F202029142DB
:10242000009000F09880FFE70298016801204022A8
:10243000C4F202029142009000F08D80FFE7029802
:10244000016801205822C4F202029142009000F07B
:102450008280FFE70298016801207022C4F2020224
:102460009142009077D0FFE702980168012088220E
:10247000C4F20202914200906DD0FFE70298016819
:102480000120A022C4F202029142009063D0FFE733
:10249000029801680120B822C4F202029142009021
:1024A00059D0FFE702980168012040F21042C4F2BF
:1024B0000202914200904ED0FFE70298016801208D
:1024C00040F22842C4F202029142009043D0FFE75A
:1024D00002980168012040F24042C4F20202914297
:1024E000009038D0FFE702980168012040F258427E
:1024F000C4F20202914200902DD0FFE702980168D9
:10250000012040F27042C4F202029142009022D0B7
:10251000FFE702980168012040F28842C4F20202FB
:102520009142009017D0FFE702980168012040F225
:10253000A042C4F20202914200900CD0FFE7029840
:1025400000684FF64831CBF6FD710844B0FA80F0D0
:1025500040090090FFE70098C00740B3FFE70298EA
:10256000007810384AF6AB21CAF6AA21A0FB011068
:1025700000090190019800F007014CF2E840C0F614
:102580000100405C0299C8650198042807D3FFE761
:1025900002990868042262F30900886506E002993E
:1025A000086840F2FF3290438865FFE705E0029932
:1025B000086820F0FF008865FFE70298806D03B08F
:1025C000704700000000000084B00390039800688A
:1025D000019003980168012045F20842C5F6020205
:1025E000914200904ED0FFE703980168012045F228
:1025F0001C42C5F602029142009043D0FFE70398C7
:102600000168012045F23042C5F602029142009075
:1026100038D0FFE703980168012045F24442C5F62F
:102620000202914200902DD0FFE70398016801203B
:1026300045F25842C5F602029142009022D0FFE7CF
:1026400003980168012045F26C42C5F602029142EE
:10265000009017D0FFE703980168012045F28042FF
:10266000C5F60202914200900CD0FFE70398006883
:102670004AF66C31CAF2FD710844B0FA80F04009A4
:102680000090FFE70098C00710B3FFE703980078B9
:1026900008384CF6CD41CCF6CC41A0FB0110000926
:1026A0000290029945F60000C5F6020000EB810099
:1026B00003990866039945F68000C5F6020048664E
:1026C000029800F01F01012088400399886635E0D8
:1026D0000398007810384AF6AB21CAF6AA21A0FB6D
:1026E000011000090290019840F2B841C4F20201C1
:1026F00088420CD8FFE7019840F21041C4F2020171
:10270000884204D3FFE7029808300290FFE702995D
:1027100040F60000C4F2020000EB81000399086655
:10272000039940F68000C4F202004866029800F067
:102730001F010120884003998866FFE704B07047B5
:1027400083B002900298007901900198002800F06F
:102750008A80FFE70198082800F28580FFE7029849
:102760000168012045F20842C5F60202914200903C
:102770004ED0FFE702980168012045F21C42C5F6E1
:1027800002029142009043D0FFE7029801680120C5
:1027900045F23042C5F602029142009038D0FFE780
:1027A00002980168012045F24442C5F602029142B6
:1027B00000902DD0FFE702980168012045F25842B1
:1027C000C5F602029142009022D0FFE7029801680C
:1027D000012045F26C42C5F602029142009017D0EA
:1027E000FFE702980168012045F28042C5F6020227
:1027F000914200900CD0FFE7029800684AF66C31D5
:10280000CAF2FD710844B0FA80F040090090FFE779
:102810000098C00780B1FFE7019945F6FC00C5F6B6
:10282000020000EB81000299C866029945F640104B
:10283000C5F6020008670FE0019940F6FC00C4F2FB
:10284000020000EB81000299C866029940F6401030
:10285000C4F202000867FFE70198411E012088408A
:1028600002994867FFE703B07047000000000000CE
:1028700085B0049000208DF80F000498806918BB83
:10288000FFE70498806A029003281BD80299DFE8CA
:1028900001F0020D0218049890F82F00C00720B133
:1028A000FFE701208DF80F00FFE70CE00498C06AF5
:1028B000B0F1C07F04D1FFE701208DF80F00FFE7E2
:1028C00001E000E0FFE747E004988069B0F5005FB1
:1028D00026D1FFE70498806A019003281ED8019949
:1028E000DFE801F00206021101208DF80F0016E06A
:1028F000049890F82F00C00720B1FFE701208DF861
:102900000F00FFE70BE00498C06AB0F1C07F04D16C
:10291000FFE701208DF80F00FFE700E0FFE71AE076
:102920000498806A0090032804D3FFE700980328E6
:1029300004D00EE001208DF80F000BE0049890F811
:102940002F00C00720B1FFE701208DF80F00FFE73F
:1029500000E0FFE7FFE7FFE79DF80F0005B07047D5
:10296000704700000000000080B58AB041F20C10F2
:10297000C2F200400090012116F07EFA41F2C4003C
:10298000C2F200400190022116F076FA42F20440B1
:10299000C2F200400290032116F06EFA41F2683054
:1029A000C2F200400390042116F066FA00981C3031
:1029B00000210491F2EE060ACDED050AB6EE001AEA
:1029C0008DED061ADFED221ACDED071AB2EE042ABC
:1029D0008DED082ADFED1F2ACDED092AB0EE620A3F
:1029E0000CF082FB01980499DDED050A9DED061AB5
:1029F000DDED071A9DED082ADDED092A1C30B0EE49
:102A0000620A0CF071FB02980499DDED050A9DED58
:102A1000061ADDED071A9DED082ADDED092A1C30A6
:102A2000B0EE620A0CF060FB03980499DDED050A34
:102A30009DED061ADDED071A9DED082ADDED092A48
:102A40001C30B0EE620A0CF04FFB0AB080BD00BF34
:102A500000401C460000484280B586B08DED050A56
:102A600041F20C10C2F200400190B0F91620B0F90A
:102A70001810891A00EE101AB8EEC00ADDED050A2A
:102A80001C300CF035FA0199BDEEC00A10EE100AA8
:102A9000888241F2C400C2F200400290B0F91620D0
:102AA000B0F91810891A00EE101AB8EEC00ADDED60
:102AB000050A1C300CF01CFA0299BDEEC00A10EE9B
:102AC000100A888242F20440C2F200400390B0F93A
:102AD0001620B0F91810891A00EE101AB8EEC00AC4
:102AE000DDED050A1C300CF003FA0399BDEEC00AB7
:102AF00010EE100A888241F26830C2F20040049061
:102B0000B0F91620B0F91810891A00EE101AB8EEB4
:102B1000C00ADDED050A1C300CF0EAF90499BDEE9F
:102B2000C00A10EE100A888206B080BD00000000C6
:102B300080B5D0B0002003904F904E904D9008206B
:102B40008DF83E014FF40070ADF8340141F20C11E4
:102B5000C2F2004105A8019048220292FDF703FC51
:102B60000198029A483041F2C401C2F20041FDF7D7
:102B7000FAFB0198029A903042F20441C2F20041FD
:102B8000FDF7F1FB0198029AD83041F26831C2F2A8
:102B90000041FDF7E8FB03980490FFE70498032841
:102BA00019DCFFE7049B03EBC30105A800EBC1019F
:102BB0004A7D4DA9023101F81320049A02EBC203A9
:102BC00000EBC300808A01EB42014870FFE70498E4
:102BD00001300490E2E743F60C50C2F200404DA9E8
:102BE00014F0D6FE50B080BD8CB00B900A910B99BA
:102BF000488888800A988178C07840EA01200B993B
:102C000048800A980179407940EA01200B990881AF
:102C10000A988179C07940EA01200B99C8800B9904
:102C2000B1F90200B1F90410401A0990099801287D
:102C300005DBFFE70998A0F50050069004E009982D
:102C400000F500500690FFE7069808900898049059
:102C50000028059002D504984042059005980190FF
:102C6000099802900028039002D5029840420390F0
:102C700001980399884203DAFFE70898009002E080
:102C800009980090FFE7009A0B99086910440861C1
:102C90000B98B0F9081000EE101AB8EEC00A9FEDBC
:102CA000161A20EE010A9FED151A20EE010A90ED8A
:102CB000031AB8EEC11A80EE010A9FED111A80EED8
:102CC000010A8DED070A9DED071A0B99B1F916005F
:102CD00000EE100AB8EEC00A9FED0A2A20EE020AA2
:102CE0009FED092AA1EE020ABDEEC00A10EE100AFD
:102CF000C8820CB0704700BFD00F49400000984216
:102D0000000070429A99193FCCCCCC3E00000000E4
:102D100041F20C11C2F200410020086141F2C401ED
:102D2000C2F20041086142F20441C2F2004108616E
:102D300041F26831C2F200410861704700000000B2
:102D400082B00190009102B07047000000000000C6
:102D500080B582B00090009800F01AF8322016F08A
:102D600053FA42F25040C2F20040006DB0F5F27FDB
:102D700004D9FFE701208DF8070003E000208DF85B
:102D80000700FFE79DF8070002B080BD00000000CB
:102D900080B5C8B0479002A801904FF48A71FDF742
:102DA000FBFA0198479909788DF8081036218DF8BB
:102DB00009100221FEF7ECFD014601988DF80A107A
:102DC000032142910821439142F6E951C0F60001E6
:102DD000459142F6F161C0F60001469132214491DD
:102DE0000CF052FF48B080BD82B001900091019874
:102DF000807850B9FFE70198D0F8030000BA42F29A
:102E00005041C2F20041086510E001988078012825
:102E10000BD1FFE70198D0F8030000BA404242F21C
:102E20005041C2F200410865FFE7FFE702B070477A
:102E300080B5C8B0479002A84FF48A71FDF7ACFA8C
:102E400000208DF80A004798007920B9FFE74FF479
:102E50009670019009E047980079012804D1FFE7B6
:102E600040F29E200190FFE7FFE7479800788DF839
:102E70000800FD208DF809004798C0788DF80B00F8
:102E8000479840888DF80C0000208DF80D009DF8C3
:102E900007108DF80E10BDF806108DF80F1001996F
:102EA000090A8DF8101001998DF8111001218DF883
:102EB00012108DF8130002A800900C21FEF768FD97
:102EC000014600988DF814100D2142910421439180
:102ED00042F64151C0F60001459142F6F161C0F65B
:102EE00000014691322144910CF0CEFE48B080BDE5
:102EF00080B584B002900191029801990139C9B25C
:102F0000FEF746FD029A0199114411F8011C88420E
:102F100004D1FFE701208DF80F0003E000208DF8B9
:102F20000F00FFE79DF80F0004B080BD0000000017
:102F300081B0EFF3108072B60090FFE7FEE700006B
:102F400080B543F60C50C2F2004003F051FB80BD47
:102F500080B543F60C50C2F2004003F049FB80BD3F
:102F600084B002900298406B009002980068D0F8FC
:102F700084004FF6FC718843009940EA8100029971
:102F80000968C1F8840002980068D0F8840020F431
:102F90007F00029A1168926B40EA0240C1F88400F7
:102FA0000298816B00980844009002980068D0F85D
:102FB00088006FF38F00009940EA81000299096848
:102FC000C1F8880002980068D0F8880020F4FE005C
:102FD000029A1168D26B40EA0240C1F88800029858
:102FE000C16B009800EB4100009002980068D0F897
:102FF000A0006FF38F00009940EA810002990968F0
:10300000C1F8A00002980068D0F8A00020F4FE00EB
:10301000029A1168126C40EA0240C1F8A0000299BD
:10302000086C496C009A00FB01200090029800682F
:10303000D0F8B0006FF38F00009940EA8100029948
:103040000968C1F8B00002980068D0F8B00020F418
:10305000FE00029A1168926C40EA0240C1F8B0008A
:103060000299886CC96C009A00FB012000900298BC
:103070000068D0F8AC006FF38F00009940EA81003F
:1030800002990968C1F8AC000299086D496D009A6F
:1030900000FB0120009002980068D0F8F0006FF368
:1030A0008F00009940EA810002990968C1F8F00098
:1030B00002980068D0F8F00020F47C10029A1168A1
:1030C000926D40EA0240C1F8F0000298816D0098CC
:1030D00000EB4100009002980068D0F8C0006FF348
:1030E0008F00009940EA810002990968C1F8C00088
:1030F00002980068D0F8C00020F47C10029A116891
:10310000D26D40EA0240C1F8C00002980068D0F8D1
:10311000C00020F07C50029A1168126E40EA0260F2
:10312000C1F8C00002994A6B4AF60040C4F20000A0
:1031300000EB8200C86602998A6BC86E00EB8200C1
:1031400008670299CA6B086F00EBC20048670299D2
:103150000A6C4B6C486F5A4300EB820088670299F7
:103160008A6CCB6C886F5A4300EB8200C867029967
:103170000A6D4B6DC86F5A4300EB8200C1F88000A6
:1031800002998A6DD1F8800000EBC200C1F884007A
:103190000299CA6D8B6ED1F884005A4300EB82000D
:1031A000C1F8880002990A6E8B6ED1F888005A43E4
:1031B00000EB8200C1F890000298D0F890004DF228
:1031C000FD31C4F2000188420FD3FFE70299D1F824
:1031D0009C0040F02000C1F89C000299032081F877
:1031E000980001208DF80F0017E00298C06E019042
:1031F000FFE701980299D1F89010884208D2FFE7C2
:10320000019900200860FFE7019804300190F0E781
:10321000FFE700208DF80F00FFE79DF80F0004B0D6
:10322000704700000000000088B0079006910592EA
:1032300004930698406848B9FFE7069801688268D9
:103240000069104340EA8140039009E00698016854
:10325000826800691043084340F080400390FFE714
:103260000698D0F820C0C16842698369C06940EA05
:103270000C6018431043084302900798826ED0F800
:1032800084000499514300EB810001900398019957
:103290000860019804300190029801990860019833
:1032A0000430019000200090FFE700980699CA8939
:1032B0004CF2D841C0F60101895C88420DD2FFE78B
:1032C00005980099405801990860019804300190D0
:1032D000FFE7009804300090E7E708B0704700006F
:1032E00080B584B04EF60000C1F6F170006803901E
:1032F0004EF60400C1F6F170006802904EF6080028
:10330000C1F6F17000680190019903980844039098
:10331000039888B1FFE7039840F2EC01C2F2004144
:103320000091023108220AF043FF009902981231FD
:1033300004220AF03DFFFFE704B080BD000000005A
:1033400080B58AB0089004F043F90490089828B931
:10335000FFE701208DF8270000F0AABC089890F83C
:10336000350002280ED0FFE7089980204865FFE766
:103370000899002081F83400FFE701208DF827002C
:1033800000F096BC0898016801201022C4F20202E5
:103390009142039000F0A380FFE7089801680120A4
:1033A0002822C4F202029142039000F09880FFE7C5
:1033B0000898016801204022C4F202029142039061
:1033C00000F08D80FFE70898016801205822C4F2C0
:1033D00002029142039000F08280FFE708980168A2
:1033E00001207022C4F202029142039077D0FFE7DD
:1033F0000898016801208822C4F2020291420390D9
:103400006DD0FFE7089801680120A022C4F20202F3
:103410009142039063D0FFE7089801680120B82229
:10342000C4F202029142039059D0FFE70898016864
:10343000012040F21042C4F20202914203904ED0A9
:10344000FFE708980168012040F22842C4F2020216
:103450009142039043D0FFE708980168012040F2B1
:103460004042C4F202029142039038D0FFE708982C
:103470000168012040F25842C4F2020291420390D6
:103480002DD0FFE708980168012040F27042C4F295
:1034900002029142039022D0FFE7089801680120C0
:1034A00040F28842C4F202029142039017D0FFE733
:1034B00008980168012040F2A042C4F20202914241
:1034C00003900CD0FFE7089800684FF64831CBF620
:1034D000FD710844B0FA80F040090390FFE70398BB
:1034E000C00780B1FFE708980168086820F01E0057
:1034F000086008980168486920F0800048610898D1
:103500000068059009E008980168086820F00E003E
:103510000860089800680590FFE708980168012096
:103520001022C4F202029142029000F00381FFE7F0
:103530000898016801202822C4F2020291420290F8
:1035400000F0F880FFE70898016801204022C4F2EB
:1035500002029142029000F0ED80FFE708980168B6
:1035600001205822C4F202029142029000F0E2804F
:10357000FFE70898016801207022C4F2020291421C
:10358000029000F0D780FFE70898016801208822A8
:10359000C4F202029142029000F0CC80FFE708984A
:1035A00001680120A022C4F202029142029000F0C0
:1035B000C180FFE7089801680120B822C4F2020226
:1035C0009142029000F0B680FFE708980168012060
:1035D00040F21042C4F202029142029000F0AA802E
:1035E000FFE708980168012040F22842C4F2020275
:1035F0009142029000F09E80FFE708980168012048
:1036000040F24042C4F202029142029000F09280E5
:10361000FFE708980168012040F25842C4F2020214
:103620009142029000F08680FFE70898016801202F
:1036300040F27042C4F20202914202907AD0FFE757
:1036400008980168012040F28842C4F202029142C7
:1036500002906FD0FFE708980168012040F2A04275
:10366000C4F202029142029064D0FFE70898016818
:10367000012040F2B842C4F202029142029059D0B5
:10368000FFE708980168012045F20842C5F60202EA
:10369000914202904ED0FFE708980168012045F260
:1036A0001C42C5F602029142029043D0FFE70898FF
:1036B0000168012045F23042C5F6020291420290B3
:1036C00038D0FFE708980168012045F24442C5F66A
:1036D0000202914202902DD0FFE708980168012074
:1036E00045F25842C5F602029142029022D0FFE70D
:1036F00008980168012045F26C42C5F60202914229
:10370000029017D0FFE708980168012045F2804237
:10371000C5F60202914202900CD0FFE708980068BB
:103720004AF66C31CAF2FD710844B0FA80F04009E3
:103730000290FFE70298C00738B1FFE70898016ED2
:10374000086820F480700860FFE70898006810217E
:10375000C4F20201884200F08180FFE70898006807
:103760002821C4F20201884278D0FFE70898006857
:103770004021C4F20201884270D0FFE70898006837
:103780005821C4F20201884268D0FFE70898006817
:103790007021C4F20201884260D0FFE708980068F7
:1037A0008821C4F20201884258D0FFE708980068D7
:1037B000A021C4F20201884250D0FFE708980068B7
:1037C000B821C4F20201884248D0FFE70898006897
:1037D00040F21041C4F2020188423FD0FFE708984E
:1037E000006840F22841C4F20201884236D0FFE767
:1037F0000898006840F24041C4F2020188422DD08E
:10380000FFE70898006840F25841C4F2020188427C
:1038100024D0FFE70898006840F27041C4F202012A
:1038200088421BD0FFE70898006840F28841C4F244
:103830000201884212D0FFE70898006840F2A041D8
:10384000C4F20201884209D0FFE70898006840F2FC
:10385000B841C4F20201884207D1FFE70898016825
:10386000086820F00100086006E008980168086810
:1038700020F001000860FFE7FFE705980068C00737
:10388000C8B1FFE703F0A4FE0499401A062811D33B
:10389000FFE70899202048650899032081F8350042
:1038A000FFE70899002081F83400FFE701208DF838
:1038B0002700FDE1E1E70898016801201022C4F229
:1038C00002029142019000F0A380FFE7089801688E
:1038D00001202822C4F202029142019000F0988057
:1038E000FFE70898016801204022C4F202029142D9
:1038F000019000F08D80FFE70898016801205822B0
:10390000C4F202029142019000F08280FFE7089821
:10391000016801207022C4F202029142019077D026
:10392000FFE70898016801208822C4F20202914250
:1039300001906DD0FFE7089801680120A022C4F231
:1039400002029142019063D0FFE7089801680120CC
:10395000B822C4F202029142019059D0FFE70898C0
:103960000168012040F21042C4F20202914201902B
:103970004ED0FFE708980168012040F22842C4F2C7
:1039800002029142019043D0FFE7089801680120AC
:1039900040F24042C4F202029142019038D0FFE767
:1039A00008980168012040F25842C4F20202914294
:1039B00001902DD0FFE708980168012040F2704285
:1039C000C4F202029142019022D0FFE708980168F8
:1039D000012040F28842C4F202029142019017D0C5
:1039E000FFE708980168012040F2A042C4F20202F9
:1039F000914201900CD0FFE7089800684FF64831DB
:103A0000CBF6FD710844B0FA80F040090190FFE761
:103A10000198C00760B1FFE70898806D079008988B
:103A2000C06D00F01F013F208840079988600BE0BF
:103A30000898806D06900898C06D00F01F01012065
:103A4000884006994860FFE7089801680120102225
:103A5000C4F202029142009000F00381FFE708984F
:103A6000016801202822C4F202029142009000F075
:103A7000F880FFE70898016801204022C4F20202A2
:103A80009142009000F0ED80FFE708980168012066
:103A90005822C4F202029142009000F0E280FFE757
:103AA0000898016801207022C4F20202914200903D
:103AB00000F0D780FFE70898016801208822C4F24F
:103AC00002029142009000F0CC80FFE70898016864
:103AD0000120A022C4F202029142009000F0C180B5
:103AE000FFE7089801680120B822C4F2020291425F
:103AF000009000F0B680FFE708980168012040F2CE
:103B00001042C4F202029142009000F0AA80FFE746
:103B100008980168012040F22842C4F20202914252
:103B2000009000F09E80FFE708980168012040F2B5
:103B30004042C4F202029142009000F09280FFE7FE
:103B400008980168012040F25842C4F202029142F2
:103B5000009000F08680FFE708980168012040F29D
:103B60007042C4F20202914200907AD0FFE70898B6
:103B70000168012040F28842C4F2020291420090A2
:103B80006FD0FFE708980168012040F2A042C4F21C
:103B900002029142009064D0FFE70898016801207A
:103BA00040F2B842C4F202029142009059D0FFE7BD
:103BB00008980168012045F20842C5F602029142C8
:103BC00000904ED0FFE708980168012045F21C42A2
:103BD000C5F602029142009043D0FFE708980168C1
:103BE000012045F23042C5F602029142009038D0E1
:103BF000FFE708980168012045F24442C5F6020239
:103C0000914200902DD0FFE708980168012045F20D
:103C10005842C5F602029142009022D0FFE7089870
:103C20000168012045F26C42C5F602029142009003
:103C300017D0FFE708980168012045F28042C5F6D9
:103C40000202914200900CD0FFE7089800684AF603
:103C50006C31CAF2FD710844B0FA80F0400900905E
:103C6000FFE70098C007A0B1FFE70898416E806E9B
:103C700048600898C06E58B1FFE70898C16E0868A0
:103C800020F4807008600898016F406F4860FFE77B
:103C9000FFE70899012081F83500FFE70899002027
:103CA00081F83400FFE7FFE700208DF82700FFE7E9
:103CB0009DF827000AB080BD80B586B004900498B6
:103CC00020B9FFE701208DF8170046E3049890F82B
:103CD0003500022807D0FFE70499802048650120BD
:103CE0008DF8170039E30498016801201022C4F20E
:103CF00002029142029000F0A380FFE7049801685D
:103D000001202822C4F202029142029000F0988021
:103D1000FFE70498016801204022C4F202029142A8
:103D2000029000F08D80FFE704980168012058227E
:103D3000C4F202029142029000F08280FFE70498F0
:103D4000016801207022C4F202029142029077D0F1
:103D5000FFE70498016801208822C4F20202914220
:103D600002906DD0FFE7049801680120A022C4F200
:103D700002029142029063D0FFE70498016801209B
:103D8000B822C4F202029142029059D0FFE704988F
:103D90000168012040F21042C4F2020291420290F6
:103DA0004ED0FFE704980168012040F22842C4F297
:103DB00002029142029043D0FFE70498016801207B
:103DC00040F24042C4F202029142029038D0FFE732
:103DD00004980168012040F25842C4F20202914264
:103DE00002902DD0FFE704980168012040F2704254
:103DF000C4F202029142029022D0FFE704980168C7
:103E0000012040F28842C4F202029142029017D08F
:103E1000FFE704980168012040F2A042C4F20202C8
:103E2000914202900CD0FFE7049800684FF64831A9
:103E3000CBF6FD710844B0FA80F040090290FFE72C
:103E40000298C007002800F09D80FFE70499042035
:103E500081F83500049800681021C4F202018842FC
:103E600000F08180FFE7049800682821C4F2020175
:103E7000884278D0FFE7049800684021C4F202012C
:103E8000884270D0FFE7049800685821C4F202010C
:103E9000884268D0FFE7049800687021C4F20201EC
:103EA000884260D0FFE7049800688821C4F20201CC
:103EB000884258D0FFE704980068A021C4F20201AC
:103EC000884250D0FFE704980068B821C4F202018C
:103ED000884248D0FFE70498006840F21041C4F2DD
:103EE000020188423FD0FFE70498006840F2284171
:103EF000C4F20201884236D0FFE70498006840F21D
:103F00004041C4F2020188422DD0FFE704980068C6
:103F100040F25841C4F20201884224D0FFE70498DD
:103F2000006840F27041C4F2020188421BD0FFE7F2
:103F30000498006840F28841C4F20201884212D01D
:103F4000FFE70498006840F2A041C4F202018842F1
:103F500009D0FFE70498006840F2B841C4F20201BA
:103F6000884207D1FFE704980168086820F0010043
:103F7000086006E004980168086820F00100086005
:103F8000FFE7E5E104980168086820F00E0008608A
:103F9000049800681021C4F20201884200F0818078
:103FA000FFE7049800682821C4F20201884278D013
:103FB000FFE7049800684021C4F20201884270D0F3
:103FC000FFE7049800685821C4F20201884268D0D3
:103FD000FFE7049800687021C4F20201884260D0B3
:103FE000FFE7049800688821C4F20201884258D093
:103FF000FFE704980068A021C4F20201884250D073
:10400000FFE704980068B821C4F20201884248D052
:10401000FFE70498006840F21041C4F202018842B0
:104020003FD0FFE70498006840F22841C4F2020143
:10403000884236D0FFE70498006840F24041C4F25D
:10404000020188422DD0FFE70498006840F25841F1
:10405000C4F20201884224D0FFE70498006840F2CD
:104060007041C4F2020188421BD0FFE70498006847
:1040700040F28841C4F20201884212D0FFE704985E
:10408000006840F2A041C4F20201884209D0FFE773
:104090000498006840F2B841C4F20201884207D196
:1040A000FFE704980168086820F00100086006E056
:1040B00004980168086820F001000860FFE7049890
:1040C000016801201022C4F202029142019000F026
:1040D0000381FFE70498016801202822C4F202024C
:1040E0009142019000F0F880FFE7049801680120F8
:1040F0004022C4F202029142019000F0ED80FFE7FD
:104100000498016801205822C4F2020291420190F1
:1041100000F0E280FFE70498016801207022C4F2F9
:1041200002029142019000F0D780FFE704980168F5
:1041300001208822C4F202029142019000F0CC805A
:10414000FFE7049801680120A022C4F20202914214
:10415000019000F0C180FFE7049801680120B822B7
:10416000C4F202029142019000F0B680FFE7049889
:104170000168012040F21042C4F202029142019013
:1041800000F0AA80FFE704980168012040F228426D
:10419000C4F202029142019000F09E80FFE7049871
:1041A0000168012040F24042C4F2020291420190B3
:1041B00000F09280FFE704980168012040F2584225
:1041C000C4F202029142019000F08680FFE7049859
:1041D0000168012040F27042C4F202029142019053
:1041E0007AD0FFE704980168012040F28842C4F2C7
:1041F0000202914201906FD0FFE70498016801200C
:1042000040F2A042C4F202029142019064D0FFE762
:1042100004980168012040F2B842C4F202029142BF
:10422000019059D0FFE704980168012045F2084247
:10423000C5F60202914201904ED0FFE70498016852
:10424000012045F21C42C5F602029142019043D082
:10425000FFE704980168012045F23042C5F60202EA
:104260009142019038D0FFE704980168012045F29F
:104270004442C5F60202914201902DD0FFE7049816
:104280000168012045F25842C5F6020291420190B0
:1042900022D0FFE704980168012045F26C42C5F680
:1042A00002029142019017D0FFE7049801680120B3
:1042B00045F28042C5F60202914201900CD0FFE720
:1042C000049800684AF66C31CAF2FD710844B0FAED
:1042D00080F040090190FFE70198C00728B3FFE78D
:1042E0000498016E086820F4807008600498806D5E
:1042F00003900498C06D00F01F01012088400399CD
:1043000048600498416E806E48600498C06E58B151
:10431000FFE70498C16E086820F480700860049874
:10432000016F406F4860FFE7FFE70499012081F8C3
:104330003500FFE70499002081F83400FFE7049876
:10434000006D20B1FFE70498016D8847FFE7FFE7A4
:10435000FFE700208DF81700FFE79DF8170006B073
:1043600080BD00000000000080B590B00F900020DC
:104370000B9040F23000C2F20040006848F2B511E4
:10438000C1F64E31A0FB0110800A0A900F98806D93
:1043900009900F98806D0890099800680E90089811
:1043A00000680D900F98016801201022C4F20202EB
:1043B0009142079000F0A380FFE70F980168012069
:1043C0002822C4F202029142079000F09880FFE791
:1043D0000F98016801204022C4F202029142079026
:1043E00000F08D80FFE70F98016801205822C4F289
:1043F00002029142079000F08280FFE70F98016867
:1044000001207022C4F202029142079077D0FFE7A8
:104410000F98016801208822C4F20202914207909D
:104420006DD0FFE70F9801680120A022C4F20202BC
:104430009142079063D0FFE70F9801680120B822EE
:10444000C4F202029142079059D0FFE70F98016829
:10445000012040F21042C4F20202914207904ED075
:10446000FFE70F980168012040F22842C4F20202DF
:104470009142079043D0FFE70F980168012040F276
:104480004042C4F202029142079038D0FFE70F98F1
:104490000168012040F25842C4F2020291420790A2
:1044A0002DD0FFE70F980168012040F27042C4F25E
:1044B00002029142079022D0FFE70F980168012085
:1044C00040F28842C4F202029142079017D0FFE7FF
:1044D0000F980168012040F2A042C4F2020291420A
:1044E00007900CD0FFE70F9800684FF64831CBF6E5
:1044F000FD710844B0FA80F040090790FFE7079883
:10450000C007002800F01385FFE70E980F99C96DCA
:1045100001F01F01C8400007002840F1B080FFE70C
:104520000F9800681021C4F20201884200F08180D7
:10453000FFE70F9800682821C4F20201884278D072
:10454000FFE70F9800684021C4F20201884270D052
:10455000FFE70F9800685821C4F20201884268D032
:10456000FFE70F9800687021C4F20201884260D012
:10457000FFE70F9800688821C4F20201884258D0F2
:10458000FFE70F980068A021C4F20201884250D0D2
:10459000FFE70F980068B821C4F20201884248D0B2
:1045A000FFE70F98006840F21041C4F20201884210
:1045B0003FD0FFE70F98006840F22841C4F20201A3
:1045C000884236D0FFE70F98006840F24041C4F2BD
:1045D000020188422DD0FFE70F98006840F2584151
:1045E000C4F20201884224D0FFE70F98006840F22D
:1045F0007041C4F2020188421BD0FFE70F980068A7
:1046000040F28841C4F20201884212D0FFE70F98BD
:10461000006840F2A041C4F20201884209D0FFE7DD
:104620000F98006840F2B841C4F20201884207D1F5
:10463000FFE70F980068006800F00400069006E0AD
:104640000F980068006800F008000690FFE70698E1
:10465000A0B1FFE70F980168086820F00400086027
:104660000F98C06D00F01F010820884009998860EC
:104670000F99486D40F001004865FFE7FFE70E988D
:104680000F99C96D01F01F01C840C007002800F054
:10469000A980FFE70F9800681021C4F20201884248
:1046A00000F08180FFE70F9800682821C4F2020122
:1046B000884278D0FFE70F9800684021C4F20201D9
:1046C000884270D0FFE70F9800685821C4F20201B9
:1046D000884268D0FFE70F9800687021C4F2020199
:1046E000884260D0FFE70F9800688821C4F2020179
:1046F000884258D0FFE70F980068A021C4F2020159
:10470000884250D0FFE70F980068B821C4F2020138
:10471000884248D0FFE70F98006840F21041C4F289
:10472000020188423FD0FFE70F98006840F228411D
:10473000C4F20201884236D0FFE70F98006840F2C9
:104740004041C4F2020188422DD0FFE70F98006873
:1047500040F25841C4F20201884224D0FFE70F988A
:10476000006840F27041C4F2020188421BD0FFE7AA
:104770000F98006840F28841C4F20201884212D0CA
:10478000FFE70F98006840F2A041C4F2020188429E
:1047900009D0FFE70F98006840F2B841C4F2020167
:1047A000884207D1FFE70F980068406900F0800059
:1047B000059005E00F980068006800200590FFE76D
:1047C000059870B1FFE70F98C06D00F01F01012040
:1047D0008840099988600F99486D40F0020048654B
:1047E000FFE7FFE70E980F99C96D01F01F01C84060
:1047F0004007002840F1A980FFE70F9800681021CA
:10480000C4F20201884200F08180FFE70F9800683F
:104810002821C4F20201884278D0FFE70F9800688F
:104820004021C4F20201884270D0FFE70F9800686F
:104830005821C4F20201884268D0FFE70F9800684F
:104840007021C4F20201884260D0FFE70F9800682F
:104850008821C4F20201884258D0FFE70F9800680F
:10486000A021C4F20201884250D0FFE70F980068EF
:10487000B821C4F20201884248D0FFE70F980068CF
:1048800040F21041C4F2020188423FD0FFE70F9886
:10489000006840F22841C4F20201884236D0FFE7A6
:1048A0000F98006840F24041C4F2020188422DD0C6
:1048B000FFE70F98006840F25841C4F202018842B5
:1048C00024D0FFE70F98006840F27041C4F2020163
:1048D00088421BD0FFE70F98006840F28841C4F27D
:1048E0000201884212D0FFE70F98006840F2A04111
:1048F000C4F20201884209D0FFE70F98006840F235
:10490000B841C4F20201884207D1FFE70F9800685E
:10491000006800F00200049005E00F98006800684D
:1049200000200490FFE7049870B1FFE70F98C06D76
:1049300000F01F0104208840099988600F99486D94
:1049400040F004004865FFE7FFE70E980F99C96D36
:1049500001F01F01C840C006002840F1DE80FFE7DB
:104960000F9800681021C4F20201884200F0818093
:10497000FFE70F9800682821C4F20201884278D02E
:10498000FFE70F9800684021C4F20201884270D00E
:10499000FFE70F9800685821C4F20201884268D0EE
:1049A000FFE70F9800687021C4F20201884260D0CE
:1049B000FFE70F9800688821C4F20201884258D0AE
:1049C000FFE70F980068A021C4F20201884250D08E
:1049D000FFE70F980068B821C4F20201884248D06E
:1049E000FFE70F98006840F21041C4F202018842CC
:1049F0003FD0FFE70F98006840F22841C4F202015F
:104A0000884236D0FFE70F98006840F24041C4F278
:104A1000020188422DD0FFE70F98006840F258410C
:104A2000C4F20201884224D0FFE70F98006840F2E8
:104A30007041C4F2020188421BD0FFE70F98006862
:104A400040F28841C4F20201884212D0FFE70F9879
:104A5000006840F2A041C4F20201884209D0FFE799
:104A60000F98006840F2B841C4F20201884207D1B1
:104A7000FFE70F980068006800F00800039006E068
:104A80000F980068006800F004000390FFE70398A7
:104A9000002841D0FFE70F98C06D00F01F011020E3
:104AA0008840099988600F980068006840030028D2
:104AB0001AD5FFE70F98006800680003002809D4A2
:104AC000FFE70F98006C20B1FFE70F98016C884753
:104AD000FFE708E00F98806C20B1FFE70F98816C2A
:104AE0008847FFE7FFE716E00F9800680068C005F9
:104AF000002807D4FFE70F980168086820F0080035
:104B00000860FFE70F98006C20B1FFE70F98016C79
:104B10008847FFE7FFE7FFE7FFE70E980F99C96DAA
:104B200001F01F01C8408006002840F12681FFE700
:104B30000F9800681021C4F20201884200F08180C1
:104B4000FFE70F9800682821C4F20201884278D05C
:104B5000FFE70F9800684021C4F20201884270D03C
:104B6000FFE70F9800685821C4F20201884268D01C
:104B7000FFE70F9800687021C4F20201884260D0FC
:104B8000FFE70F9800688821C4F20201884258D0DC
:104B9000FFE70F980068A021C4F20201884250D0BC
:104BA000FFE70F980068B821C4F20201884248D09C
:104BB000FFE70F98006840F21041C4F202018842FA
:104BC0003FD0FFE70F98006840F22841C4F202018D
:104BD000884236D0FFE70F98006840F24041C4F2A7
:104BE000020188422DD0FFE70F98006840F258413B
:104BF000C4F20201884224D0FFE70F98006840F217
:104C00007041C4F2020188421BD0FFE70F98006890
:104C100040F28841C4F20201884212D0FFE70F98A7
:104C2000006840F2A041C4F20201884209D0FFE7C7
:104C30000F98006840F2B841C4F20201884207D1DF
:104C4000FFE70F980068006800F01000029006E08F
:104C50000F980068006800F002000290FFE70298D9
:104C6000002800F08980FFE70F98C06D00F01F0159
:104C700020208840099988600F9890F83500042812
:104C800037D1FFE70F980168086820F01600086028
:104C90000F980168486920F0800048610F98006C07
:104CA00020B9FFE70F98806C38B1FFE70F980168D3
:104CB000086820F008000860FFE70F98C06D00F05A
:104CC0001F013F208840099988600F99012081F8D1
:104CD0003500FFE70F99002081F83400FFE70F98B7
:104CE000006D20B1FFE70F98016D8847FFE700F0E6
:104CF00019BC0F9800680068400300281AD5FFE728
:104D00000F98006800680003002809D4FFE70F9897
:104D1000406C20B1FFE70F98416C8847FFE708E03F
:104D20000F98C06B20B1FFE70F98C16B8847FFE772
:104D3000FFE720E00F9800680068C005002811D444
:104D4000FFE70F980168086820F0100008600F99CD
:104D5000012081F83500FFE70F99002081F8340029
:104D6000FFE7FFE70F98C06B20B1FFE70F98C16B1B
:104D70008847FFE7FFE7FFE7FFE70F98406D002850
:104D800000F0D480FFE70F98406DC007002800F0C6
:104D9000C480FFE70F99042081F835000F98006860
:104DA0001021C4F20201884200F08180FFE70F98D1
:104DB00000682821C4F20201884278D0FFE70F98EA
:104DC00000684021C4F20201884270D0FFE70F98CA
:104DD00000685821C4F20201884268D0FFE70F98AA
:104DE00000687021C4F20201884260D0FFE70F988A
:104DF00000688821C4F20201884258D0FFE70F986A
:104E00000068A021C4F20201884250D0FFE70F9849
:104E10000068B821C4F20201884248D0FFE70F9829
:104E2000006840F21041C4F2020188423FD0FFE71F
:104E30000F98006840F22841C4F20201884236D03F
:104E4000FFE70F98006840F24041C4F20201884237
:104E50002DD0FFE70F98006840F25841C4F20201DC
:104E6000884224D0FFE70F98006840F27041C4F2F6
:104E7000020188421BD0FFE70F98006840F288418A
:104E8000C4F20201884212D0FFE70F98006840F296
:104E9000A041C4F20201884209D0FFE70F980068E0
:104EA00040F2B841C4F20201884207D1FFE70F98EF
:104EB0000168086820F00100086006E00F980168AA
:104EC000086820F001000860FFE7FFE70B98013059
:104ED0000B900A99884201D9FFE707E0FFE70F9896
:104EE00000680068C0070028F0D1FFE70F9800684D
:104EF0000068C00728B1FFE70F99032081F835004B
:104F000004E00F99012081F83500FFE7FFE70F99D2
:104F1000002081F83400FFE7FFE70F98C06C20B154
:104F2000FFE70F98C16C8847FFE7FFE7FAE20F98A9
:104F30000168012045F20842C5F602029142019043
:104F40004ED0FFE70F980168012045F21C42C5F6DC
:104F500002029142019043D0FFE70F9801680120BF
:104F600045F23042C5F602029142019038D0FFE787
:104F70000F980168012045F24442C5F602029142B1
:104F800001902DD0FFE70F980168012045F25842AB
:104F9000C5F602029142019022D0FFE70F98016806
:104FA000012045F26C42C5F602029142019017D0F1
:104FB000FFE70F980168012045F28042C5F6020222
:104FC000914201900CD0FFE70F9800684AF66C31CF
:104FD000CAF2FD710844B0FA80F040090190FFE781
:104FE0000198C007002800F09B82FFE70F98006837
:104FF00000680C900D980F99C96D01F01F01C84011
:105000004007002840F1D780FFE79DF830004007B7
:10501000002840F1D080FFE70F98C06D00F01F011D
:1050200004208840089948609DF831000006002857
:1050300018D5FFE79DF83200C00748B9FFE70F9881
:10504000806C20B1FFE70F98816C8847FFE708E08C
:105050000F98006C20B1FFE70F98016C8847FFE7BD
:10506000FFE7A7E09DF830008006002800F1998056
:10507000FFE70F9800681021C4F20201884200F097
:105080008180FFE70F9800682821C4F2020188425E
:1050900078D0FFE70F9800684021C4F202018842EF
:1050A00070D0FFE70F9800685821C4F202018842CF
:1050B00068D0FFE70F9800687021C4F202018842AF
:1050C00060D0FFE70F9800688821C4F2020188428F
:1050D00058D0FFE70F980068A021C4F2020188426F
:1050E00050D0FFE70F980068B821C4F2020188424F
:1050F00048D0FFE70F98006840F21041C4F2020167
:1051000088423FD0FFE70F98006840F22841C4F280
:105110000201884236D0FFE70F98006840F2404114
:10512000C4F2020188422DD0FFE70F98006840F2D8
:105130005841C4F20201884224D0FFE70F9800686A
:1051400040F27041C4F2020188421BD0FFE70F9881
:10515000006840F28841C4F20201884212D0FFE7A1
:105160000F98006840F2A041C4F20201884209D0C1
:10517000FFE70F98006840F2B841C4F2020188428C
:1051800007D1FFE70F980168086820F00800086061
:1051900006E00F980168086820F004000860FFE747
:1051A000FFE70F98006C20B1FFE70F98016C88476C
:1051B000FFE7FFE7B3E10D980F99C96D01F01F01FB
:1051C000C8408007002840F1E180FFE79DF83000EB
:1051D0008007002840F1DA80FFE70F98C06D00F0EB
:1051E0001F0102208840089948609DF831000006A0
:1051F000002818D5FFE79DF83200C00748B9FFE73F
:105200000F98406C20B1FFE70F98416C8847FFE78B
:1052100008E00F98C06B20B1FFE70F98C16B88477B
:10522000FFE7FFE7B1E09DF830008006002800F1BD
:10523000A380FFE70F9800681021C4F202018842A2
:1052400000F08180FFE70F9800682821C4F2020176
:10525000884278D0FFE70F9800684021C4F202012D
:10526000884270D0FFE70F9800685821C4F202010D
:10527000884268D0FFE70F9800687021C4F20201ED
:10528000884260D0FFE70F9800688821C4F20201CD
:10529000884258D0FFE70F980068A021C4F20201AD
:1052A000884250D0FFE70F980068B821C4F202018D
:1052B000884248D0FFE70F98006840F21041C4F2DE
:1052C000020188423FD0FFE70F98006840F2284172
:1052D000C4F20201884236D0FFE70F98006840F21E
:1052E0004041C4F2020188422DD0FFE70F980068C8
:1052F00040F25841C4F20201884224D0FFE70F98DF
:10530000006840F27041C4F2020188421BD0FFE7FE
:105310000F98006840F28841C4F20201884212D01E
:10532000FFE70F98006840F2A041C4F202018842F2
:1053300009D0FFE70F98006840F2B841C4F20201BB
:10534000884207D1FFE70F980168086820F0140031
:10535000086006E00F980168086820F00A000860FD
:10536000FFE70F99012081F83500FFE70F99002032
:1053700081F83400FFE7FFE70F98C06B20B1FFE72B
:105380000F98C16B8847FFE7FFE7C7E00D980F99BB
:10539000C96D01F01F01C8400007002840F1BC8022
:1053A000FFE79DF830000007002840F1B580FFE7D7
:1053B0000F9800681021C4F20201884200F0818039
:1053C000FFE70F9800682821C4F20201884278D0D4
:1053D000FFE70F9800684021C4F20201884270D0B4
:1053E000FFE70F9800685821C4F20201884268D094
:1053F000FFE70F9800687021C4F20201884260D074
:10540000FFE70F9800688821C4F20201884258D053
:10541000FFE70F980068A021C4F20201884250D033
:10542000FFE70F980068B821C4F20201884248D013
:10543000FFE70F98006840F21041C4F20201884271
:105440003FD0FFE70F98006840F22841C4F2020104
:10545000884236D0FFE70F98006840F24041C4F21E
:10546000020188422DD0FFE70F98006840F25841B2
:10547000C4F20201884224D0FFE70F98006840F28E
:105480007041C4F2020188421BD0FFE70F98006808
:1054900040F28841C4F20201884212D0FFE70F981F
:1054A000006840F2A041C4F20201884209D0FFE73F
:1054B0000F98006840F2B841C4F20201884207D157
:1054C000FFE70F980168086820F01C00086006E0FC
:1054D0000F980168086820F00E000860FFE70F9839
:1054E000C06D00F01F01012000FA01F1089A51601F
:1054F0000F9948650F9981F83500FFE70F99002053
:1055000081F83400FFE70F98C06C20B1FFE70F98D7
:10551000C16C8847FFE700E0FFE7FFE7FFE700E037
:10552000FFE7FFE710B080BD10B58EB00C9002F021
:105530004FF80A900C9828B9FFE701208DF8370042
:1055400000F09EBC0C98016801201022C4F20202F7
:105550009142079000F0A380FFE70C9801680120BA
:105560002822C4F202029142079000F09880FFE7DF
:105570000C98016801204022C4F202029142079077
:1055800000F08D80FFE70C98016801205822C4F2DA
:1055900002029142079000F08280FFE70C980168B8
:1055A00001207022C4F202029142079077D0FFE7F7
:1055B0000C98016801208822C4F2020291420790EF
:1055C0006DD0FFE70C9801680120A022C4F202020E
:1055D0009142079063D0FFE70C9801680120B82240
:1055E000C4F202029142079059D0FFE70C9801687B
:1055F000012040F21042C4F20202914207904ED0C4
:10560000FFE70C980168012040F22842C4F2020230
:105610009142079043D0FFE70C980168012040F2C7
:105620004042C4F202029142079038D0FFE70C9842
:105630000168012040F25842C4F2020291420790F0
:105640002DD0FFE70C980168012040F27042C4F2AF
:1056500002029142079022D0FFE70C9801680120D6
:1056600040F28842C4F202029142079017D0FFE74D
:105670000C980168012040F2A042C4F2020291425B
:1056800007900CD0FFE70C9800684FF64831CBF636
:10569000FD710844B0FA80F040090790FFE70798D1
:1056A000C007002800F07881FFE70C98406A08B135
:1056B000FFE7FFE70C99022081F83500FFE70C991E
:1056C000002081F83400FFE70C9800681021C4F234
:1056D0000201884200F08180FFE70C9800682821D1
:1056E000C4F20201884278D0FFE70C98006840219C
:1056F000C4F20201884270D0FFE70C98006858217C
:10570000C4F20201884268D0FFE70C98006870215B
:10571000C4F20201884260D0FFE70C98006888213B
:10572000C4F20201884258D0FFE70C980068A0211B
:10573000C4F20201884250D0FFE70C980068B821FB
:10574000C4F20201884248D0FFE70C98006840F29A
:105750001041C4F2020188423FD0FFE70C98006874
:1057600040F22841C4F20201884236D0FFE70C988B
:10577000006840F24041C4F2020188422DD0FFE7A8
:105780000C98006840F25841C4F20201884224D0CB
:10579000FFE70C98006840F27041C4F202018842B1
:1057A0001BD0FFE70C98006840F28841C4F2020168
:1057B000884212D0FFE70C98006840F2A041C4F282
:1057C0000201884209D0FFE70C98006840F2B84116
:1057D000C4F20201884207D1FFE70C98016808680B
:1057E00020F00100086006E00C980168086820F0CD
:1057F00001000860FFE7FFE70C9800680068C00739
:1058000098B1FFE701F0E4FE0A99401A06280BD38D
:10581000FFE70C99202048650C99032081F835009A
:1058200001208DF837002BE3E6E70C98006800684C
:105830000B900B9848F23F01CFF6106108400B9097
:105840000C998868D1F80CC00B694A6940EA0C00D1
:10585000184310438A691043CA691043096A014317
:105860000B9808430B900C98406A042808D1FFE776
:105870000C99C86A096B01430B9808430B90FFE72A
:105880000C984068292807D3FFE70C98416801204D
:105890002F29069036D3FFE70C9840683F2807D39E
:1058A000FFE70C9841680120432906902AD3FFE7BF
:1058B0000C984068472807D3FFE70C9841680120FF
:1058C000492906901ED3FFE70C9840684F2807D35C
:1058D000FFE70C98416801205329069012D3FFE797
:1058E0000C98416800207429059008D3FFE70C98B4
:1058F00041680020782938BF01200590FFE705980E
:105900000690FFE70698C00728B1FFE70B9840F420
:1059100080100B90FFE70B980C99096808600C98B1
:10592000006840690B900B9820F007000B900C98D2
:10593000416A0B9808430B900C98406A04281AD1CE
:10594000FFE70C98816A0B9808430B900C98C06A8B
:1059500080B1FFE70C98FCF78BFF50B1FFE70C9983
:10596000402048650C99012081F835008DF83700FA
:1059700086E2FFE7FFE70B980C99096848610C98ED
:10598000FCF73AFD09900C98C06D00F01F013F2014
:1059900088400999886026E10C980168012045F249
:1059A0000842C5F60202914204904ED0FFE70C98DF
:1059B0000168012045F21C42C5F6020291420490A2
:1059C00043D0FFE70C980168012045F23042C5F64C
:1059D00002029142049038D0FFE70C980168012040
:1059E00045F24442C5F60202914204902DD0FFE7F1
:1059F0000C980168012045F25842C5F60202914216
:105A0000049022D0FFE70C980168012045F26C4217
:105A1000C5F602029142049017D0FFE70C98016886
:105A2000012045F28042C5F60202914204900CD05A
:105A3000FFE70C9800684AF66C31CAF2FD71084421
:105A4000B0FA80F040090490FFE70498C0070028EE
:105A500000F0BD80FFE70C980168012045F2084284
:105A6000C5F60202914203904ED0FFE70C98016800
:105A7000012045F21C42C5F602029142039043D038
:105A8000FFE70C980168012045F23042C5F602029A
:105A90009142039038D0FFE70C980168012045F24D
:105AA0004442C5F60202914203902DD0FFE70C98C4
:105AB0000168012045F25842C5F602029142039066
:105AC00022D0FFE70C980168012045F26C42C5F630
:105AD00002029142039017D0FFE70C980168012061
